:1000000012C072C1C7C12AC02AC028C027C026C0DA
:100010009BC024C023C022C021C020C01FC01EC05E
:100020001DC01CC01BC011241FBECFE5D4E0DEBF25
:10003000CDBF10E0A0E6B0E0E4EAFBE002C005902E
:100040000D92A236B107D9F720E0A2E6B0E001C0D8
:100050001D92A43AB207E1F7BDD1A2C5D1CF1F923C
:100060000F920FB60F9211242F938F939F9380912D
:100070006F0090917000019779F5809171009091D7
:100080007200892B11F4C5981EC080917100909167
:100090007200853F910511F4C59A15C080917100D9
:1000A000909172008A3E914011F4C5980CC08091E5
:1000B0007100909172008F3D924029F4C59A109280
:1000C000700010926F008091710090917200019603
:1000D000909372008093710014BC9F918F912F9127
:1000E0000F900FBE0F901F901895369A84B195B15E
:1000F0009093630080936200349B25C084B195B1D6
:1001000090936300809362008F3F910509F020F483
:1001100081E08093600016C0811522E0920720F4F0
:1001200082E0809360000EC0811523E0920720F4E6
:1001300083E08093600006C08115944018F484E049
:1001400080936000349A08951F920F920FB60F9219
:1001500011242F933F934F935F936F937F938F93CC
:100160009F93AF93BF93EF93FF938091A1008F5F15
:100170008093A10080916A00811173C081E090E0BA
:100180009093740080937300C19AC09880916A0024
:100190008F5F80936A004091600029E03DE3429FB9
:1001A000C001439F900D1124809590959DBD8CBDFD
:1001B0008091660090916700019799F510926A000E
:1001C00094DF20916400309165008091600090E0A0
:1001D000880F991F2817390784F42F5F3F4F3093FA
:1001E00065002093640081DF98B380E1892788BB94
:1001F0008AE791EE9DBD8CBD66C077DFC49A1092F0
:100200006500109264004091600029E03DE3429F48
:10021000C001439F900D1124809590959DBD8CBD8C
:1002200052C08091660090916700892B09F04BC005
:100230008091680090916900019729F4C498809199
:100240006800909169004091600029E03DE3429F81
:10025000C001439F900D1124809590959DBD8CBD4C
:1002600032C08130C9F41092740010927300C09AA9
:10027000C29880916A008F5F80936A00409160000D
:1002800029E03DE3429FC001439F900D11248095DA
:1002900090959DBD8CBD17C08230A9F4109274005A
:1002A00010927300C29AC19810926A004091600047
:1002B00029E03DE3429FC001439F900D11248095AA
:1002C00090959DBD8CBDFF91EF91BF91AF919F9196
:1002D0008F917F916F915F914F913F912F910F90EF
:1002E0000FBE0F901F9018951F920F920FB60F928E
:1002F00011242F933F934F935F936F937F938F932B
:100300009F93AF93BF93EF93FF938091730090916E
:1003100074000197F9F481E090E09093700080936D
:100320006F00109272001092710060916B007091DA
:100330006C0080916D0090916E0020E030E040E80C
:100340005FE307D260936B0070936C0080936D0045
:1003500090936E0060916B0070916C0080916D00C5
:1003600090916E0023E333E343E250E47CD3BDD2AB
:1003700063BDFF91EF91BF91AF919F918F917F915D
:100380006F915F914F913F912F910F900FBE0F9002
:100390001F9018951F920F920FB60F9211242F9352
:1003A0003F938F939F93209166003091670081E087
:1003B00090E0232B11F080E090E090936700809311
:1003C00066009F918F913F912F910F900FBE0F90DC
:1003D0001F901895B89AB99ABA9ABC9A8D988E9827
:1003E000BB9A959A969ABF9ABE9ABD9A8898899810
:1003F00088B39FEF98BB959A379A86B1836086B988
:100400003298389839983A983B98369A359A8FB5F9
:100410008E7F8FBD8FB58D7F8FBD8EB5877F8EBD53
:100420008EB58F7E8EBD8EB58B7F8EBD8EB5826074
:100430008EBD8EB581608EBD85B5886085BD85B564
:10044000806485BD85B58F7E85BD85B5806285BD9F
:1004500085B58E7F85BD85B5826085BD85B58B7F71
:1004600085BD83B7816083BF83B78D7F83BF83B72B
:10047000846083BF89B7846089BF89B7806489BF7E
:100480008BB780648BBF85B78E7F85BF85B7826051
:1004900085BF8BB780688BBF85B78B7F85BF85B7DE
:1004A000886085BF88B398BB78944091600029E04C
:1004B0003DE3429FC001439F900D1124809590958C
:1004C0009DBD8CBD14BCC1E0D0E00F2EC12CD12C41
:1004D000F0EAEF2EF1E4FF2EF02D80990FC060912D
:1004E000990070919A0080919B0090919C0023E369
:1004F00033E343E250E4B7D2F8D163BD81990FC032
:1005000060916B0070916C0080916D0090916E0015
:1005100023E333E343E250E4A6D2E7D163BD8599F8
:1005200018C08091A2009091A300892B91F48CB502
:100530009DB5A0E0B0E08093950090939600A093C5
:100540009700B09398001092A100D093A300C0939D
:10055000A2008699C2CF8091A2009091A30001973A
:1005600009F0BBCF8CB59DB5A0E0B0E080939100C1
:1005700090939200A0939300B09394008091A10077
:1005800090E0A0E0B0E080937D0090937E00A09387
:100590007F00B09380001092A3001092A20080917F
:1005A000950090919600A0919700B091980080934B
:1005B0008D0090938E00A0938F00B0939000809157
:1005C000910090919200A0919300B091940080933B
:1005D000890090938A00A0938B00B0938C00809147
:1005E000890090918A00A0918B00B0918C0040917D
:1005F0008D0050918E0060918F0070919000841B4F
:10060000950BA60BB70B8093850090938600A09363
:100610008700B093880020917D0030917E0040914A
:100620007F0050918000E0916000A9E0BDE3A2D27C
:100630009B01AC01AE2FB0E09DD26093750070932A
:1006400076008093770090937800409185005091D8
:10065000860060918700709188008091750090916C
:100660007600A0917700B0917800840F951FA61FA7
:10067000B71F8093790090937A00A0937B00B0938A
:100680007C006091790070917A0080917B0090915C
:100690007C0057D120E034E244E756E4BED06093BA
:1006A0008100709382008093830090938400C092B5
:1006B0009D00D0929E00E0929F00F092A000609179
:1006C0009D0070919E0080919F009091A0002091CC
:1006D00081003091820040918300509184009DD030
:1006E00026E636E646E650E4BED160939900709364
:1006F0009A0080939B0090939C0060919900709168
:100700009A0080919B0090919C0020E030E048ECA2
:1007100052E4A5D1181664F480E090E0A8ECB2E4AD
:100720008093990090939A00A0939B00B0939C00B3
:100730006091990070919A0080919B0090919C002B
:1007400023E333E343E250E48ED1CFD063BDC5CE83
:100750005058BB27AA270ED048C139D130F03ED11E
:1007600020F031F49F3F11F41EF42EC10EF4E095F9
:10077000E7FB24C1E92F4AD180F3BA176207730758
:100780008407950718F071F49EF562C10EF4E095A8
:100790000B2EBA2FA02D0B01B90190010C01CA013B
:1007A000A0011124FF27591B99F0593F50F4503EE6
:1007B00068F11A16F040A22F232F342F4427585FD8
:1007C000F3CF469537952795A795F0405395C9F7F0
:1007D0007EF41F16BA0B620B730B840BBAF09150A8
:1007E000A1F0FF0FBB1F661F771F881FC2F70EC047
:1007F000BA0F621F731F841F48F48795779567951A
:10080000B795F7959E3F08F0B3CF9395880F08F002
:100810009927EE0F9795879508950CD0E6C0DED006
:1008200040F0D5D030F021F45F3F19F0C7C051112E
:1008300010C1CAC0EBD098F39923C9F35523B1F383
:10084000951B550BBB27AA2762177307840738F03F
:100850009F5F5F4F220F331F441FAA1FA9F333D09E
:100860000E2E3AF0E0E830D091505040E695001C52
:10087000CAF729D0FE2F27D0660F771F881FBB1F0E
:10088000261737074807AB07B0E809F0BB0B802DE8
:10089000BF01FF2793585F4F2AF09E3F510568F034
:1008A0008DC0D7C05F3FECF3983EDCF3869577951B
:1008B0006795B795F7959F5FC9F7880F911D969536
:1008C000879597F90895E1E0660F771F881FBB1F92
:1008D000621773078407BA0720F0621B730B840B3F
:1008E000BA0BEE1F88F7E095089598D088F09F57CF
:1008F00090F0B92F9927B751A0F0D1F0660F771F6C
:10090000881F991F1AF0BA95C9F712C0B13081F04B
:100910009FD0B1E008959CC0672F782F8827B85FDB
:1009200039F0B93FCCF3869577956795B395D9F7AC
:100930003EF490958095709561957F4F8F4F9F4FB6
:100940000895E89409C097FB3EF4909580957095C2
:1009500061957F4F8F4F9F4F9923A9F0F92F96E90B
:10096000BB279395F695879577956795B795F11180
:10097000F8CFFAF4BB0F11F460FF1BC06F5F7F4F1D
:100980008F4F9F4F16C0882311F096E911C077232F
:1009900021F09EE8872F762F05C0662371F096E838
:1009A000862F70E060E02AF09A95660F771F881F07
:1009B000DAF7880F9695879597F9089597F99F67C5
:1009C00080E870E060E008959FEF80EC08950024D7
:1009D0000A941616170618060906089500240A94A4
:1009E00012161306140605060895092E0394000C2A
:1009F00011F4882352F0BB0F40F4BF2B11F460FFB9
:100A000004C06F5F7F4F8F4F9F4F089557FD9058E1
:100A1000440F551F59F05F3F71F04795880F97FBC2
:100A2000991F61F09F3F79F087950895121613067C
:100A30001406551FF2CF4695F1DF08C016161706AB
:100A40001806991FF1CF86957105610508940895E0
:100A5000E894BB2766277727CB0197F9089566D0DE
:100A600008F48FEF08950BD0C0CFB1DF28F0B6DFC8
:100A700018F0952309F0A2CFA7CF1124EACFC6DF43
:100A8000A0F3959FD1F3950F50E0551F629FF001A1
:100A9000729FBB27F00DB11D639FAA27F00DB11DFA
:100AA000AA1F649F6627B00DA11D661F829F222783
:100AB000B00DA11D621F739FB00DA11D621F839F0A
:100AC000A00D611D221F749F3327A00D611D231FE0
:100AD000849F600D211D822F762F6A2F11249F572E
:100AE00050408AF0E1F088234AF0EE0FFF1FBB1F51
:100AF000661F771F881F91505040A9F79E3F5105F0
:100B000070F05CCFA6CF5F3FECF3983EDCF38695A8
:100B100077956795B795F795E7959F5FC1F7FE2B9A
:100B2000880F911D9695879597F90895990F00085C
:100B3000550FAA0BE0E8FEEF16161706E807F907AF
:100B4000C0F012161306E407F50798F0621B730B4A
:100B5000840B950B39F40A2661F0232B242B252BCB
:100B600021F408950A2609F4A140A6958FEF811D6E
:100B7000811D089509D0A59F900DB49F900DA49F4D
:100B8000800D911D11240895A29FB001B39FC00153
:100B9000A39F01D0B29F700D811D1124911D089556
:040BA000F894FFCFF7
:020BA40001004E
:00000001FF
